:020000040800F2
:100000001004002001010008FD0F0008590E00082F
:10001000FB0F000875010008C9100008000000006F
:1000200000000000000000000000000013010008B4
:1000300077010008000000001701000821100008E7
:100040001B0100081B0100081B0100081B01000820
:100050001B0100081B0100081B0100081B01000810
:100060001B0100081B0100081B0100081B01000800
:100070001B0100081B0100081B0100081B010008F0
:100080001B0100081B0100081B0100081B010008E0
:100090001B0100081B0100081B0100081B010008D0
:1000A0001B0100081B0100081B0100081B010008C0
:1000B0001B0100081B010008000000001B010008D4
:1000C0001B01000800000000000000001B010008E8
:1000D000000000001B0100081B01000800000000D8
:1000E0001B0100081B0100081B010008DFF80CD0F1
:1000F00000F02EF800480047751200081004002098
:100100000648804706480047FEE7FEE7FEE7FEE7B1
:10011000FEE7FEE7FEE7FEE7FEE7FEE781100008E8
:10012000ED00000830B50B460146002020220124D6
:1001300009E021FA02F59D4205D303FA02F5491BB5
:1001400004FA02F52844151EA2F10102F1DC30BDCB
:10015000064C074D06E0E06840F0010394E8070014
:1001600098471034AC42F6D3FFF7C4FFDC14000804
:10017000FC140008FEE7FEE731B500F0EDF8044698
:1001800000F0EAF80099001B8842F9D338BD00005E
:100190002DE9F84FDFF894A100220AF1040B144670
:1001A0004FF0010C4FF00F090BF1040E0B680CFA25
:1001B00004F52B40AB4271D15D4F4E68A6EB0708AA
:1001C000BE422BD00DDC032E34D005DC36B3012E1D
:1001D00019D0022E2FD11BE0112E16D0122E2AD1AB
:1001E00019E0B8F5881F19D006DCB8F5803F15D0A6
:1001F000B8F5801F1FD111E0B8F5001F0ED0B8F57B
:10020000041F18D10AE0CA6815E0CA68121D12E07E
:10021000CA6808320FE0CA680C320CE08A682AB15A
:10022000012A4FF0080203D0456104E0042202E0F5
:10023000056100E00022FF2B01D8074601E000F134
:1002400004074FEA840601D9A6F120063D6809FAA1
:1002500006F825EA080502FA06F645EA06053D60B5
:100260004D68ED005CD5334DAE6946F00106AE61D8
:10027000AD6924F0030605F0010500952E4D2E44CE
:10028000B568A7073F0F09FA07F825EA0805DFF860
:10029000AC80404503D14FF0000810E040E0DFF8AB
:1002A000A080404502D14FF0010808E0DFF89480BB
:1002B000404502D14FF0020801E04FF0030808FA70
:1002C00007F848EA0508C6F808804D68DAF80060C3
:1002D000ED03002D554601DA1E4300E09E432E60DB
:1002E0004D68DBF80060AD03002D5D4601DA1E436A
:1002F00000E09E432E604D68DEF80060ED02002DA8
:10030000754601DA1E4300E09E432E604D68AD0243
:10031000002D0D4D2E6801DA1E4300E09E432E6035
:10032000641C102CFFF442AFBDE8F88F00040140BC
:1003300000001110001002400000014000080140C0
:10034000000C0140001001400C0401400AB10161A1
:1003500070470904FBE7000001480068704700008F
:100360000000002002480168491C0160704700003D
:1003700000000020074810B5016841F0100101603D
:10038000032000F069F8002000F006F800F016F8ED
:10039000002010BD0020024010B5044600F0B2F964
:1003A0004FF47A71B0FBF1F000F03EFD00222146DF
:1003B000501E00F031F8002010BD0000154808B5AF
:1003C000816941F001018161806900F001000090C4
:1003D000032000F041F8002211466FF00B0000F0FE
:1003E0001BF8002211466FF00A0000F015F80022F9
:1003F00011466FF0090000F00FF800221146101F9F
:1004000000F00AF80022BDE808401146501E00F036
:1004100003B8000000100240F0B40E4B1B680C46FD
:10042000C3F30223C3F10705042D00D90425191DC8
:10043000072901D2002300E0DB1E012606FA05F1A0
:10044000491E214099409E40761E16403143F0BC23
:1004500000F0D6BD0CED00E0064900F00702086888
:100460004FF6FF03184040EA0220034A1043086099
:10047000704700000CED00E00000FA052DE9F047A0
:10048000DFF8789205460E46D9F80000022300F006
:100490000707012041044206994C41F28838B742CF
:1004A00071D2D9F800C02CF0070C4CEA060CC9F840
:1004B00000C0D9F8007007F00707B7426FD12E7857
:1004C000B60705D56668AF6826F0F0063E4366605D
:1004D0002E78F60756D06E68012E0BD0022E1ED055
:1004E00093FAA3F1B1FA81F141F02001490924D036
:1004F000216823E091FAA1F2B2FA82F242F02002DE
:10050000520901D0226800E0626A91FAA1F1B1FAC1
:1005100081F101F01F018840024240D017E092FAB9
:10052000A2F1B1FA81F141F02001490901D021681D
:1005300000E0616A92FAA2F202E0616A93FAA3F221
:10054000B2FA82F202F01F029040014227D06068A6
:1005500020F0030030436060FFF7FEFE0646686847
:10056000012809D00228474613D01EE0FFF7F4FE09
:10057000801BB84201D992E047466068C0F3810011
:100580000128F3D1A1E015E0FFF7E6FE801BB84299
:1005900073D86068C0F381000228F5D195E092E03D
:1005A000FFF7DAFE801BB84279D8606810F00C0FB4
:1005B000F6D18AE02F78BF0707D56768D5F808C05D
:1005C00027F0F00747EA0C0767602F78FF076DD028
:1005D0006F68012F0BD0022F1ED093FAA3F1B1FA4E
:1005E00081F141F02001490924D0216823E091FAEA
:1005F000A1F2B2FA82F242F02002520901D022683E
:1006000000E0626A91FAA1F1B1FA81F101F01F01F3
:100610008840024257D017E092FAA2F1B1FA81F174
:1006200041F02001490901D0216800E0616A92FA95
:10063000A2F202E0616A93FAA3F2B2FA82F202F045
:100640001F02904001423ED0606820F00300384312
:100650006060FFF781FE07466868012807D002281E
:1006600011D01FE0FFF778FEC11B414517D8606825
:10067000C0F381000128F5D118E010E0FFF76CFE0F
:10068000C11B41450BD86068C0F381000228F5D139
:100690000CE000BFFFF760FEC11B414502D90320FB
:1006A000BDE8F087606810F00C0FF3D1D9F80010A6
:1006B00021F007013143C9F80010D9F8000000F01B
:1006C0000700B04201D00120EAE72878400705D5AD
:1006D0006068E96820F4E0600843606028780007FB
:1006E00006D56068296920F4605040EAC100606066
:1006F0000020FFF751FE0020D2E70000002002405A
:100700000010024000B500F017F808494968F022CF
:1007100092FAA2F201F0F001B2FA82F2D140044A58
:10072000515CC8400349086000BD00000010024051
:10073000CC1400080400002010B585B01AA301AC49
:10074000D3E901011A68DB6800920BC41AA01B4BA5
:10075000006804905A681A4802F00C0104291ED05F
:1007600008291CD14FF4701494FAA4F402F4701107
:10077000B4FA84F421FA04F1D2031DF8011010D563
:100780005A684FF4003393FAA3F302F40032B3FA39
:1007900083F3DA4004AB9A5CB0FBF2F0484305B057
:1007A00010BD08484843FAE7020304050607080994
:1007B0000A0B0C0D0E0F1010010200000010024079
:1007C00000127A0000093D002DE9F84F0546007837
:1007D000F94EC0074FF0010425D070686704C0F3DC
:1007E0008100012807D07068C0F3810002281BD166
:1007F0007068C00318D597FAA7F0B0FA80F040F0FF
:100800002000400901D0306800E0706A97FAA7F133
:10081000B1FA81F101F01F0104FA01F1084202D09E
:100820006868002876D081E0306820F4803030603D
:10083000306820F480203060FFF78EFD804605E0B0
:10084000FFF78AFDA0EB080064287CD897FAA7F090
:10085000B0FA80F040F02000400901D0306800E09C
:10086000706A97FAA7F1B1FA81F101F01F0104FA59
:1008700001F10842E4D16868B0F5803F0BD010B1B7
:10088000B0F5A02F11D0306820F48030306030688F
:1008900020F4802002E0306840F4803030606868E6
:1008A00020B3FFF759FD80460AE0306840F480200D
:1008B0003060F0E7FFF750FDA0EB08006428C4D8D3
:1008C00097FAA7F0B0FA80F040F02000400901D07C
:1008D000306800E0706A97FAA7F1B1FA81F101F08F
:1008E0001F0104FA01F10842E4D01FE0FFF734FDD4
:1008F000804605E0FFF730FDA0EB08006428A4D88F
:1009000097FAA7F0B0FA80F040F02000400902D03A
:10091000306801E0B1E0706A97FAA7F1B1FA81F1AD
:1009200001F01F0104FA01F10842E3D12878DFF851
:100930008C8280074FF000094FF0020732D57068B3
:1009400010F00C0F00E084E14FF0F80B07D0706856
:10095000C0F38100022826D17068C00323D497FA1F
:10096000A7F0B0FA80F040F02000400901D03068D4
:1009700000E0706A97FAA7F1B1FA81F101F01F0166
:1009800004FA01F1084202D02869012875D13068C3
:100990009BFAABF26969B2FA82F220F0F80091405A
:1009A0000843306059E0286988B394FAA4F1B1FA99
:1009B00081F148F82140FFF7CFFC824606E000BFF6
:1009C000FFF7CAFCA0EB0A00022898D897FAA7F014
:1009D000B0FA80F040F02000400901D0306800E01B
:1009E000706A97FAA7F1B1FA81F101F01F0104FAD8
:1009F00001F10842E4D030689BFAABF220F0F80134
:100A00006869B2FA82F290400143316025E0FFE765
:100A100094FAA4F2B2FA82F248F82290FFF79CFC12
:100A2000824605E0FFF798FCA0EB0A000228CCD82C
:100A300097FAA7F0B0FA80F040F02000400901D00A
:100A4000306800E0706A97FAA7F1B1FA81F101F01D
:100A50001F0104FA01F10842E4D1287800076AD5A1
:100A60005748A969A9B394FAA4F1B1FA81F140F801
:100A70002140FFF771FC824606E0A6E1FFF76CFC1F
:100A8000A0EB0A000228A0D897FAA7F0B0FA80F0ED
:100A900040F06000B4EB501F01D130680BE097FAD2
:100AA000A7F0B0FA80F040F06000B7EB501F01D122
:100AB000306A00E0706A97FAA7F1B1FA81F101F0AB
:100AC0001F0104FA01F21042D8D00120FFF754FBB5
:100AD00031E0FFE794FAA4F2B2FA82F240F82290F1
:100AE000FFF73AFC824605E0FFF736FCA0EB0A0070
:100AF00002289CD897FAA7F0B0FA80F040F0600086
:100B0000B4EB501F01D130680BE097FAA7F0B0FAB0
:100B100080F040F06000B7EB501F01D1306A00E078
:100B2000706A97FAA7F1B1FA81F101F01F0104FA96
:100B300001F21042D8D12878400773D5F06940F00F
:100B40008050F061F069DFF87CB000F080500090D8
:100B5000DBF8001041F48071CBF80010FFF7FCFBCC
:100B6000824605E0FFF7F8FBA0EB0A00642870D886
:100B7000DBF80000C005F5D5306A20F001003062D6
:100B8000306A20F004003062FFF7E6FB834641F252
:100B9000883A05E0FFF7E0FBA0EB0B01514558D880
:100BA00097FAA7F0B0FA80F040F04000B4EB501F85
:100BB0000AD1306814E000000010024000004242F8
:100BC000800442420070004097FAA7F0B0FA80F02B
:100BD00040F04000B7EB501F01D1306A00E0706A6E
:100BE00097FAA7F1B1FA81F101F01F0104FA01F1BE
:100BF0000842CFD1E86801280AD008B1052812D0F0
:100C0000306A20F001003062306A20F0040002E017
:100C1000306A40F001003062E86890B3FFF79CFB57
:100C200083460BE059E0306A40F004003062EFE7A1
:100C3000FFF792FBA0EB0B0151450AD897FAA7F0FA
:100C4000B0FA80F040F04000B4EB501F02D13068A1
:100C50000CE09DE097FAA7F0B0FA80F040F0400079
:100C6000B7EB501F01D1306A00E0706A97FAA7F124
:100C7000B1FA81F101F01F0204FA02F10842D7D063
:100C80002BE0FFE7FFF768FB834605E0FFF764FB17
:100C9000A0EB0B0151457BD897FAA7F0B0FA80F092
:100CA00040F04000B4EB501F01D130680BE097FAE0
:100CB000A7F0B0FA80F040F04000B7EB501F01D130
:100CC000306A00E0706A97FAA7F1B1FA81F101F099
:100CD0001F0204FA02F10842D8D1E86980B37168B2
:100CE000C1F38101022970D04FF080714F000228BA
:100CF0004A4609D091FAA1F1B1FA81F148F82120D0
:100D0000FFF72AFB054669E08A4691FAA1F1B1FA9C
:100D100081F1C14648F82120FFF71EFB804605E01F
:100D2000FFF71AFBA0EB0800022854D897FAA7F0A7
:100D3000B0FA80F040F02000400902D0306801E0B5
:100D400061E0706A97FAA7F1B1FA81F101F01F0131
:100D500004FA01F10842E3D1286AB0F5803F05D1D9
:100D60007068A96820F4003008437060D5E9080174
:100D70000843716821F47411084370609AFAAAF16B
:100D8000B1FA81F149F82140FFF7E6FA054606E09D
:100D900021E000BFFFF7E0FA401B02281BD897FABA
:100DA000A7F0B0FA80F040F02000400901D0306890
:100DB00000E0706A97FAA7F1B1FA81F101F01F0122
:100DC00004FA01F10842E5D01DE01EE0FFF7C4FA85
:100DD000401B022802D90320BDE8F88F97FAA7F03C
:100DE000B0FA80F040F02000400901D0306800E007
:100DF000706A97FAA7F1B1FA81F101F01F0104FAC4
:100E000001F10842E2D10020E6E70120E4E74FF0DB
:100E1000E0210428086903D020F00400086170472D
:100E200040F00400FAE7704710B5401EB0F1807F33
:100E300001D3012010BD4FF0E02460610F21601745
:100E400000F0DEF80020A06107202061002010BD26
:100E500010B5FFF7E8FF10BDFEE710B5002000F069
:100E600005F8BDE810400120AFF3008070B50C4CD0
:100E70000546002201212046FFF768FA284600F0C7
:100E80003FF8012202212046FFF760FA0420FFF715
:100E900073F92046BDE8704000220221FFF756BAE0
:100EA0000008014010B5002000F02AF81420FFF7D8
:100EB00063F90320FFF7DAFF0520FFF75DF9032050
:100EC000FFF7D4FF0B20FFF757F90320FFF7CEFF02
:100ED0000220FFF7CBFF0220FFF7C8FF0820FFF733
:100EE000C5FF0020FFF7C2FF0C20FFF7BFFF002067
:100EF000FFF7BCFFBDE810400620FFF7B7BF0000BA
:100F000070B50446134DC00701D0012200E0002255
:100F100004212846FFF71AFAA00701D5012200E0B4
:100F2000002208212846FFF711FA600701D50122A7
:100F300000E0002210212846FFF708FA200701D51B
:100F4000012200E000222846BDE870402021FFF782
:100F5000FDB900000008014010B501280ED002289C
:100F60000ED1BF31C8B2010900F00F040846FFF7E7
:100F70007DFF2046BDE81040FFF778BF7F31F1E7E5
:100F800010BD000070B5164D00F00F04064601229A
:100F900011462846FFF7DAF90F2000EA1610FFF78E
:100FA000AFFF012202212846FFF7D0F90120FFF709
:100FB000E3F8002202212846FFF7C8F92046FFF790
:100FC0009FFF012202212846FFF7C0F90120FFF709
:100FD000D3F82846BDE8704000220221FFF7B6B9D9
:100FE0000008014070B50546002402E0FFF7CAFF83
:100FF000641C285D0028F9D170BDFEE77047000031
:101000000907090E002803DA00F00F00024A00E089
:10101000024A81547047000014ED00E000E400E053
:1010200010B5FFF79FF9BDE81040FFF711BF10B5ED
:1010300090B0022000900120049010200024059020
:1010400007946846FFF7C0FB0F20CDE90A040C9413
:101050000D9400210AA80E94FFF710FAFFF752FB37
:101060004FF47A71B0FBF1F0FFF7DEFE0420FFF7DA
:10107000CEFE00221146501EFFF7CEF910B010BD73
:101080000D48016841F00101016041680B4A1140BF
:10109000416001680A4A11400160016821F4802121
:1010A0000160416821F4FE0141604FF41F0181603D
:1010B0000449C00308607047001002400000FFF8B8
:1010C000FFFFF6FE08ED00E0FEE700000FB4084B5E
:1010D00010B504A902AA039800F01CF8044602A95E
:1010E000002000F0C1F8204610BC5DF814FB0000A1
:1010F0006912000802E008C8121F08C1002AFAD1CC
:1011000070477047002001E001C1121F002AFBD187
:10111000704700002DE9FF4F89B09B46044600252B
:1011200097E0252833D10027641C4E49B846012298
:101130002378203B02FA03F0084202D00743641CE4
:10114000F6E720782E2819D114F8010F47F004078C
:101150002A280ED06FF02F022078A0F13001092943
:101160000CD808EB880102EB410100EB0108641C7C
:10117000F2E70A98641C50F8048B0A902078002843
:101180006BD0642808D0692806D0752820D05A462C
:101190000B9990476D1C5BE00A994FF00A0901C951
:1011A0000A91002804DAC0F100004FF02D0102E09E
:1011B000390504D52B218DF82010012103E0F90712
:1011C00004D02021F7E78A4608AE0EE00021FAE7B6
:1011D0000A994FF00A0901C90A91F7E74946FEF753
:1011E000A1FF01F1300106F8011D0028F6D1ADEB99
:1011F000060000F12009780701D44FF00108C84526
:1012000002DDA8EB090000E000208046002706E090
:1012100008A85A46C05D0B9990476D1C7F1C574526
:10122000F6DB04E030205A460B9990476D1CB8F16C
:101230000001A8F10108F5DC05E016F8010B5A469B
:101240000B9990476D1CB9F10001A9F10109F4DC7B
:10125000641C207800287FF464AF0DB02846BDE8F8
:10126000F08F0000092801000A68531C0B60107001
:101270007047000088B0FFF77DF8FFF7D8FE84487C
:10128000816941F0040181618069824C00F00400B1
:1012900007900022FF212046FFF758F8FF20039017
:1012A000012004900220069003A92046FEF770FF5B
:1012B000FFF7F8FDFFF7D1FD0024E1B20220FFF7B0
:1012C0004BFEDB20FFF75EFE641C0F2CF5DB0121DB
:1012D0000846FFF741FE70A0FFF784FE714C0A2517
:1012E00071A12068B0FBF5F26846FFF7EFFE0B2115
:1012F0000120FFF731FE6846FFF774FE2068B0FB5F
:10130000F5F105FB110268A16846FFF7DFFE0C212D
:101310000120FFF721FE6846FFF764FE2520FFF756
:1013200031FE0A20FEF728FF2068401C20600728B5
:1013300006D101210220FFF70FFEFF20FFF722FE5A
:101340002068112806D102210846FFF705FEFF207C
:10135000FFF718FE2068182806D103210220FFF7A6
:10136000FBFDFF20FFF70EFE20681F2806D1042199
:101370000220FFF7F1FDFF20FFF704FE206825287B
:1013800006D105210220FFF7E7FDFF20FFF7FAFD58
:1013900020682C2806D106210220FFF7DDFDFF2062
:1013A000FFF7F0FD2068332806D107210220FFF760
:1013B000D3FDFF20FFF7E6FD2068392806D108217C
:1013C0000220FFF7C9FDFF20FFF7DCFD20683D2864
:1013D00006D109210220FFF7BFFDFF20FFF7D2FD54
:1013E0002068432806D10A210220FFF7B5FDFF201F
:1013F000FFF7C8FD20684A2806D10B210220FFF71D
:10140000ABFDFF20FFF7BEFD2068512806D10C215F
:101410000220FFF7A1FDFF20FFF7B4FD2068582848
:1014200006D10D210220FFF797FDFF20FFF7AAFD4F
:1014300020685F2806D10E210220FFF78DFDFF20D6
:10144000FFF7A0FD206864281DD1FFF706FD4FF4CB
:101450007A7615E03046FEF78FFE01210846FFF749
:101460007BFD12A0FFF7BEFD01210220FFF774FDF6
:1014700012A0FFF7B7FD3046FEF77EFEFFF7EDFC4A
:1014800020686428E6D06420FEF776FE28E7000096
:1014900000100240000801404C4F4144494E472E85
:1014A0002E2E000008000020257500002020434F4C
:1014B0004D504C45544544202121210020205359B2
:1014C0005354454D2052454144590000000000004E
:1014D000010203040102030406070809FC140008C2
:1014E000000000200C000000F4100008081500089F
:1014F0000C0000200404000004110008000000009B
:0815000000A24A0400000000F3
:04000005080000ED02
:00000001FF
